{"abi":[{"type":"constructor","inputs":[],"stateMutability":"nonpayable"},{"type":"function","name":"EXTENSION_TIME","inputs":[],"outputs":[{"name":"","type":"uint256","internalType":"uint256"}],"stateMutability":"view"},{"type":"function","name":"MAX_EXTENSIONS","inputs":[],"outputs":[{"name":"","type":"uint256","internalType":"uint256"}],"stateMutability":"view"},{"type":"function","name":"MAX_EXTENSION_PERCENT","inputs":[],"outputs":[{"name":"","type":"uint256","internalType":"uint256"}],"stateMutability":"view"},{"type":"function","name":"accumulatedFees","inputs":[],"outputs":[{"name":"","type":"uint256","internalType":"uint256"}],"stateMutability":"view"},{"type":"function","name":"auctionCounter","inputs":[],"outputs":[{"name":"","type":"uint256","internalType":"uint256"}],"stateMutability":"view"},{"type":"function","name":"auctions","inputs":[{"name":"","type":"uint256","internalType":"uint256"}],"outputs":[{"name":"metadataCID","type":"string","internalType":"string"},{"name":"seller","type":"address","internalType":"address"},{"name":"startingPrice","type":"uint256","internalType":"uint256"},{"name":"highestBid","type":"uint256","internalType":"uint256"},{"name":"highestBidder","type":"address","internalType":"address"},{"name":"deadline","type":"uint256","internalType":"uint256"},{"name":"endBlock","type":"uint256","internalType":"uint256"},{"name":"duration","type":"uint256","internalType":"uint256"},{"name":"minIncrement","type":"uint256","internalType":"uint256"},{"name":"extensionCount","type":"uint256","internalType":"uint256"},{"name":"sellerExtendedTime","type":"uint256","internalType":"uint256"},{"name":"numBidders","type":"uint256","internalType":"uint256"},{"name":"ended","type":"bool","internalType":"bool"},{"name":"exists","type":"bool","internalType":"bool"}],"stateMutability":"view"},{"type":"function","name":"baseBuyerFee","inputs":[],"outputs":[{"name":"","type":"uint256","internalType":"uint256"}],"stateMutability":"view"},{"type":"function","name":"buyerFee","inputs":[{"name":"auctionId","type":"uint256","internalType":"uint256"}],"outputs":[{"name":"","type":"uint256","internalType":"uint256"}],"stateMutability":"view"},{"type":"function","name":"createAuction","inputs":[{"name":"metadataCID","type":"string","internalType":"string"},{"name":"startingPrice","type":"uint256","internalType":"uint256"},{"name":"durationSeconds","type":"uint256","internalType":"uint256"},{"name":"minIncrement","type":"uint256","internalType":"uint256"}],"outputs":[{"name":"","type":"uint256","internalType":"uint256"}],"stateMutability":"nonpayable"},{"type":"function","name":"endAuction","inputs":[{"name":"_auctionId","type":"uint256","internalType":"uint256"}],"outputs":[],"stateMutability":"nonpayable"},{"type":"function","name":"extendBySeller","inputs":[{"name":"_auctionId","type":"uint256","internalType":"uint256"},{"name":"extraTime","type":"uint256","internalType":"uint256"}],"outputs":[],"stateMutability":"nonpayable"},{"type":"function","name":"getAuction","inputs":[{"name":"auctionId","type":"uint256","internalType":"uint256"}],"outputs":[{"name":"metadataCID","type":"string","internalType":"string"},{"name":"seller","type":"address","internalType":"address"},{"name":"highestBid","type":"uint256","internalType":"uint256"},{"name":"highestBidder","type":"address","internalType":"address"},{"name":"deadline","type":"uint256","internalType":"uint256"},{"name":"ended","type":"bool","internalType":"bool"},{"name":"numBidders","type":"uint256","internalType":"uint256"}],"stateMutability":"view"},{"type":"function","name":"isVerifiedSeller","inputs":[{"name":"sellerAddr","type":"address","internalType":"address"}],"outputs":[{"name":"","type":"bool","internalType":"bool"}],"stateMutability":"view"},{"type":"function","name":"minimumBidTotal","inputs":[{"name":"auctionId","type":"uint256","internalType":"uint256"}],"outputs":[{"name":"","type":"uint256","internalType":"uint256"}],"stateMutability":"view"},{"type":"function","name":"owner","inputs":[],"outputs":[{"name":"","type":"address","internalType":"address"}],"stateMutability":"view"},{"type":"function","name":"pendingReturns","inputs":[{"name":"","type":"uint256","internalType":"uint256"},{"name":"","type":"address","internalType":"address"}],"outputs":[{"name":"","type":"uint256","internalType":"uint256"}],"stateMutability":"view"},{"type":"function","name":"placeBid","inputs":[{"name":"_auctionId","type":"uint256","internalType":"uint256"}],"outputs":[],"stateMutability":"payable"},{"type":"function","name":"registerAsSeller","inputs":[],"outputs":[],"stateMutability":"payable"},{"type":"function","name":"revokeSeller","inputs":[{"name":"sellerAddr","type":"address","internalType":"address"}],"outputs":[],"stateMutability":"nonpayable"},{"type":"function","name":"sellerRegistrationFee","inputs":[],"outputs":[{"name":"","type":"uint256","internalType":"uint256"}],"stateMutability":"view"},{"type":"function","name":"sellers","inputs":[{"name":"","type":"address","internalType":"address"}],"outputs":[{"name":"isVerified","type":"bool","internalType":"bool"},{"name":"hasPaidFee","type":"bool","internalType":"bool"},{"name":"registeredAt","type":"uint256","internalType":"uint256"}],"stateMutability":"view"},{"type":"function","name":"updateFees","inputs":[{"name":"newSellerFee","type":"uint256","internalType":"uint256"},{"name":"newBuyerFee","type":"uint256","internalType":"uint256"}],"outputs":[],"stateMutability":"nonpayable"},{"type":"function","name":"verifySeller","inputs":[{"name":"sellerAddr","type":"address","internalType":"address"}],"outputs":[],"stateMutability":"nonpayable"},{"type":"function","name":"withdrawBid","inputs":[{"name":"auctionId","type":"uint256","internalType":"uint256"}],"outputs":[],"stateMutability":"nonpayable"},{"type":"function","name":"withdrawFees","inputs":[],"outputs":[],"stateMutability":"nonpayable"},{"type":"event","name":"AuctionCreated","inputs":[{"name":"auctionId","type":"uint256","indexed":true,"internalType":"uint256"},{"name":"metadataCID","type":"string","indexed":false,"internalType":"string"},{"name":"startingPrice","type":"uint256","indexed":false,"internalType":"uint256"},{"name":"deadline","type":"uint256","indexed":false,"internalType":"uint256"}],"anonymous":false},{"type":"event","name":"AuctionEnded","inputs":[{"name":"auctionId","type":"uint256","indexed":true,"internalType":"uint256"},{"name":"winner","type":"address","indexed":true,"internalType":"address"},{"name":"amount","type":"uint256","indexed":false,"internalType":"uint256"}],"anonymous":false},{"type":"event","name":"AuctionExtended","inputs":[{"name":"auctionId","type":"uint256","indexed":true,"internalType":"uint256"},{"name":"newDeadline","type":"uint256","indexed":false,"internalType":"uint256"},{"name":"reason","type":"string","indexed":false,"internalType":"string"}],"anonymous":false},{"type":"event","name":"BidPlaced","inputs":[{"name":"auctionId","type":"uint256","indexed":true,"internalType":"uint256"},{"name":"bidder","type":"address","indexed":true,"internalType":"address"},{"name":"amount","type":"uint256","indexed":false,"internalType":"uint256"}],"anonymous":false},{"type":"event","name":"BidWithdrawn","inputs":[{"name":"auctionId","type":"uint256","indexed":true,"internalType":"uint256"},{"name":"bidder","type":"address","indexed":true,"internalType":"address"},{"name":"amount","type":"uint256","indexed":false,"internalType":"uint256"}],"anonymous":false},{"type":"event","name":"FeesUpdated","inputs":[{"name":"newSellerFee","type":"uint256","indexed":false,"internalType":"uint256"},{"name":"newBuyerFee","type":"uint256","indexed":false,"internalType":"uint256"}],"anonymous":false},{"type":"event","name":"FeesWithdrawn","inputs":[{"name":"admin","type":"address","indexed":true,"internalType":"address"},{"name":"amount","type":"uint256","indexed":false,"internalType":"uint256"}],"anonymous":false},{"type":"event","name":"SellerRegistered","inputs":[{"name":"seller","type":"address","indexed":true,"internalType":"address"},{"name":"feePaid","type":"uint256","indexed":false,"internalType":"uint256"}],"anonymous":false},{"type":"event","name":"SellerRevoked","inputs":[{"name":"seller","type":"address","indexed":true,"internalType":"address"}],"anonymous":false},{"type":"event","name":"SellerVerified","inputs":[{"name":"seller","type":"address","indexed":true,"internalType":"address"}],"anonymous":false},{"type":"error","name":"ReentrancyGuardReentrantCall","inputs":[]}],"bytecode":{"object":"0x608080604052346100615760017f9b779b17422d0df92223018b32b4d1fa46e071723d6817e2486d003becc55f0055662386f26fc1000060065566038d7ea4c680006007555f80546001600160a01b03191633179055611bfb90816100668239f35b5f80fdfe60806040526004361015610011575f80fd5b5f3560e01c80630eaaf4c81461163f578063128b8532146115395780631c46a5f81461130c578063476343ee146112225780634e46373414610cf45780635681104a14610cd9578063571a26a014610bee578063587f5ed714610bd15780635c7aec3514610bb45780636d47ab7214610b5f5780636db7943714610b0557806378bd793514610a1c57806381e66630146109fe5780638da5cb5b146109d75780638ddac1ef1461098e57806396a913bf146108ce5780639979ef451461042f578063a0f8504c14610412578063a7e76644146103f5578063b091c81b146103b8578063b9a2de3a14610265578063c07780f61461024a578063d1760e6014610171578063de4a008a1461014b5763f88c527b1461012c575f80fd5b34610147575f36600319011261014757602060405160148152f35b5f80fd5b34610147576020366003190112610147576020610169600435611aea565b604051908152f35b346101475760203660031901126101475761018a61193c565b5f546001600160a01b0391906101a3908316331461195f565b16805f52600560205260ff60405f205460081c16156101f957805f52600560205260405f20600160ff198254161790557f3b70d942f0d1b7ca8b2d9e9489ae6658663909e702d5fac66b2796dab740c5a45f80a2005b60405162461bcd60e51b8152602060048201526024808201527f53656c6c657220686173206e6f74207061696420726567697374726174696f6e6044820152632066656560e01b6064820152608490fd5b34610147575f36600319011261014757602060405160058152f35b34610147576020806003193601126101475760043590815f526001815261029860ff600c60405f20015460081c166119a5565b815f526001815260405f20916006830154431061037357600c8301600181546102c460ff8216156119f7565b60ff191617905560048301805490935f93916001600160a01b0391908216610318575b507fd2aa34a4fdbbc6dff6a3e56f46e0f3ae2a31d7785ff3487aa5c95c642acea501929394541693604051908152a3005b7fd2aa34a4fdbbc6dff6a3e56f46e0f3ae2a31d7785ff3487aa5c95c642acea5019394506003810190815490865f526003855283600160405f20920154165f52845261036960405f20918254611952565b90555493926102e7565b60405162461bcd60e51b815260048101839052601760248201527f41756374696f6e206973207374696c6c206163746976650000000000000000006044820152606490fd5b34610147576020366003190112610147576001600160a01b036103d961193c565b165f526005602052602060ff60405f2054166040519015158152f35b34610147575f366003190112610147576020600254604051908152f35b34610147575f366003190112610147576020600754604051908152f35b60208060031936011261014757600435805f526001825261045c60ff600c60405f20015460081c166119a5565b805f526001825260405f20916006830190815443101561088a5760ff600c850154166108465760018401546001600160a01b0394908516331461080d5760048101928584541633146107cf576104b185611aea565b956104c86104bf88346119ea565b97600854611952565b600855861561077857845416806106e057506002820154861061069b579085915b855f526004845260405f20335f52845260ff60405f20541615610667575b8054908143108061064f575b80610641575b610569575b50506003907f0e54eff26401bf69b81b26f60bd85ef47f5d85275c1d268d84f68d6897431c4794336bffffffffffffffffffffffff60a01b82541617905501556040519384523393a3005b9190925060058101948554956078870180971161062d57869055600a840180941161062d57867f83fd7341a47a710c724aa27aa7f09f56c48634837a08ea5e8b542a310b7de71760807f0e54eff26401bf69b81b26f60bd85ef47f5d85275c1d268d84f68d6897431c47988b9760039755600986016105e88154611997565b9055604051908152604089820152601b60408201527f416e74692d736e6970696e67206175746f2d657874656e73696f6e00000000006060820152a29481925061051e565b634e487b7160e01b5f52601160045260245ffd5b506005600984015410610519565b506078610661600585015442906119ea565b10610513565b855f526004845260405f20335f52845260405f20600160ff19825416179055600b82016106948154611997565b9055610507565b60405162461bcd60e51b815260048101849052601860248201527f4269642062656c6f77207374617274696e6720707269636500000000000000006044820152606490fd5b6003830154906106f4600885015483611952565b8810610725579087939291875f526003865260405f20905f52855261071e60405f20918254611952565b90556104e9565b60405162461bcd60e51b815260048101869052602560248201527f426964206d757374206265206174206c6561737420696e6372656d656e74206860448201526434b3b432b960d91b6064820152608490fd5b60405162461bcd60e51b815260048101859052602960248201527f4d7573742073656e64206d6f7265207468616e207468652070617274696369706044820152686174696f6e2066656560b81b6064820152608490fd5b60405162461bcd60e51b815260048101849052601660248201527520b63932b0b23c903434b3b432b9ba103134b23232b960511b6044820152606490fd5b60405162461bcd60e51b815260048101839052601160248201527014d95b1b195c8818d85b9b9bdd08189a59607a1b6044820152606490fd5b6064906040519062461bcd60e51b82526004820152601c60248201527f41756374696f6e20697320616c72656164792066696e616c697a6564000000006044820152fd5b6064906040519062461bcd60e51b82526004820152601960248201527f41756374696f6e2068617320616c726561647920656e646564000000000000006044820152fd5b34610147576020366003190112610147576108e761193c565b5f546001600160a01b039190610900908316331461195f565b16805f52600560205260ff60405f2054161561095057805f52600560205260405f2060ff1981541690557fea80e8e27db0832060df75abe3292d36558c46bc38fddd2aa28f5edd3e168c395f80a2005b60405162461bcd60e51b8152602060048201526016602482015275139bdd0818dd5c9c995b9d1b1e481d995c9a599a595960521b6044820152606490fd5b34610147576040366003190112610147576024356001600160a01b03811690819003610147576004355f52600360205260405f20905f52602052602060405f2054604051908152f35b34610147575f366003190112610147575f546040516001600160a01b039091168152602090f35b34610147576020366003190112610147576020610169600435611b56565b3461014757602036600319011261014757600435805f52600160205260ff600c60405f20015460081c1615610acb575f526001602052610aa660405f2060018060a01b03908160018201541690600381015492600482015416600582015460ff600c8401541691610a91600b8501549461185d565b9560405197889760e0895260e08901906118fe565b956020880152604087015260608601526080850152151560a084015260c08301520390f35b60405162461bcd60e51b8152602060048201526012602482015271125b9d985b1a5908185d58dd1a5bdb88125160721b6044820152606490fd5b34610147577f5c6323bf1c2d7aaea2c091a4751c1c87af7f2864650c336507a77d0557af37a16040610b36366117bd565b610b4a60018060a01b035f5416331461195f565b816006558060075582519182526020820152a1005b34610147576020366003190112610147576001600160a01b03610b8061193c565b165f526005602052606060405f206001815491015460ff604051928181161515845260081c16151560208301526040820152f35b34610147575f366003190112610147576020600654604051908152f35b34610147575f366003190112610147576020600854604051908152f35b34610147576020366003190112610147576004355f52600160205260405f20610c168161185d565b600160a01b60019003908160018401541691600284015493600381015491600482015416600582015460068301546007840154600885015491600986015493600a87015495600b88015497600c0154986040519c8d9c8d9c8d6101c09081815201610c80916118fe565b9c6020015260408d015260608c015260808b015260a08a015260c089015260e088015261010087015261012086015261014085015261016084015260ff8116151561018084015260081c60ff1615156101a08301520390f35b34610147575f36600319011261014757602060405160788152f35b346101475760803660031901126101475760043567ffffffffffffffff8111610147573660238201121561014757806004013590610d3182611809565b91610d3f60405193846117d3565b8083526024913683838301011161014757815f9284602093018387013784010152606490813591335f52600560205260ff60405f205416156111e05781351561119e57821561116457603c604435106111165762015180604435116110d4575060025491610dac83611997565b600255610dbb60443542611952565b90610dcb600c6044350443611952565b604051926101c0840184811067ffffffffffffffff8211176110c15760405286845233602085015284356040850152843560608501525f608085015260a084015260c083015260443560e08301526101008201525f6101208201525f6101408201525f6101608201525f61018082015260016101a0820152825f52600160205260405f20815180519067ffffffffffffffff82116110ae57610e6d8354611825565b601f811161106d575b509160209693918695938890601f8311600114610fdc5792827f5bf34ed94988e5dcdc7d1faaa54eb1d3b55f45d5f11457e235afb21a8ebbe73c979593600c93610fbb98965f92610fd1575b50508160011b915f199060031b1c19161781555b6001810160018060a01b0390818c86015116906bffffffffffffffffffffffff60a01b9182825416179055604085015160028401556060850151600384015560048301916080860151169082541617905560a0830151600582015560c0830151600682015560e0830151600782015561010083015160088201556101208301516009820155610140830151600a820155610160830151600b820155019061018081015115159060ff61ff006101a08554930151151560081b1692169061ffff191617179055610fa760443542611952565b6040519384936060855260608501906118fe565b91358884015260408301520390a2604051908152f35b015190508c80610ec2565b90835f52895f20915f5b601f1985168110611053575083600c93610fbb9896936001937f5bf34ed94988e5dcdc7d1faaa54eb1d3b55f45d5f11457e235afb21a8ebbe73c9b9997601f1981161061103b575b505050811b018155610ed6565b01515f1960f88460031b161c191690558c808061102e565b8183015184558a9950600190930192918b01918b01610fe6565b835f5260205f20601f840160051c8101602085106110a7575b601f830160051c8201811061109c575050610e76565b5f8155600101611086565b5080611086565b84634e487b7160e01b5f5260416004525ffd5b85634e487b7160e01b5f5260416004525ffd5b90601f6040519162461bcd60e51b8352602060048401528201527f4475726174696f6e2063616e6e6f742065786365656420323420686f757273006044820152fd5b9061746560f01b60849260226040519362461bcd60e51b8552602060048601528401527f4475726174696f6e206d757374206265206174206c656173742031206d696e756044840152820152fd5b9060156040519162461bcd60e51b835260206004840152820152740496e6372656d656e74206d757374206265203e203605c1b6044820152fd5b90601a6040519162461bcd60e51b8352602060048401528201527f5374617274696e67207072696365206d757374206265203e20300000000000006044820152fd5b90601c6040519162461bcd60e51b8352602060048401528201527f53656c6c6572206e6f742076657269666965642062792061646d696e000000006044820152fd5b34610147575f366003190112610147575f546001600160a01b039061124a908216331461195f565b611252611aa8565b6008549081156112d15760207fc0819c13be868895eb93e40eaceb96de976442fa1d404e5c55f14bb65a8c489a915f6008556112a05f80808088868254165af161129a611a3b565b50611a6a565b5f541692604051908152a260017f9b779b17422d0df92223018b32b4d1fa46e071723d6817e2486d003becc55f0055005b60405162461bcd60e51b81526020600482015260136024820152724e6f206665657320746f20776974686472617760681b6044820152606490fd5b346101475761131a366117bd565b815f5260206001815261133960ff600c60405f20015460081c166119a5565b5f83815260018083526040909120908101546001600160a01b031633036114fb57600681019283549361136d8543106119f7565b60ff600c840154166114bf5781156114865760078301549060148202918083046014149015171561062d57600a8401936064855493046113ad8585611952565b1161144157604093608096937f83fd7341a47a710c724aa27aa7f09f56c48634837a08ea5e8b542a310b7de71798969361140060056114079501986113f3858b54611952565b809a55600c850490611952565b9055611952565b90558151928352820152601760408201527f53656c6c6572206d616e75616c20657874656e73696f6e0000000000000000006060820152a2005b60405162461bcd60e51b815260048101879052601960248201527f4578636565647320616c6c6f77656420657874656e73696f6e000000000000006044820152606490fd5b60405162461bcd60e51b815260048101859052601160248201527024b73b30b634b21032bc3a32b739b4b7b760791b6044820152606490fd5b60405162461bcd60e51b8152600481018590526014602482015273105d58dd1a5bdb881a5cc8199a5b985b1a5e995960621b6044820152606490fd5b60405162461bcd60e51b815260048101839052601660248201527513db9b1e481cd95b1b195c8818d85b88195e1d195b9960521b6044820152606490fd5b5f36600319011261014757335f52600560205260ff60405f205460081c166116055760065434106115c057335f52600560205260405f2061010061ff001982541617815560014291015561158f34600854611952565b6008556040513481527fa1a1a78ff3033d5ee8393372052aeb2a16bbb347a29f3780370e9506c109e37260203392a2005b60405162461bcd60e51b815260206004820152601d60248201527f496e73756666696369656e7420726567697374726174696f6e206665650000006044820152606490fd5b60405162461bcd60e51b8152602060048201526012602482015271105b1c9958591e481c9959da5cdd195c995960721b6044820152606490fd5b34610147576020806003193601126101475760043561165c611aa8565b805f526001825261167960ff600c60405f20015460081c166119a5565b805f526001825260405f2060018060a01b03600482015416331490816117ad575b5061176f57805f526003825260405f20335f52825260405f2054918215611735577f8f8619524e8d462cead34604bd2247ede24175801481e4d0b8059ac8aa41c30190825f526003815260405f20335f5281525f60408120556117065f80808088335af161129a611a3b565b6040519384523393a360017f9b779b17422d0df92223018b32b4d1fa46e071723d6817e2486d003becc55f0055005b6064906040519062461bcd60e51b8252600482015260136024820152724e6f7468696e6720746f20776974686472617760681b6044820152fd5b60405162461bcd60e51b815260048101839052601660248201527557696e6e65722063616e6e6f7420776974686472617760501b6044820152606490fd5b60ff9150600c015416158361169a565b6040906003190112610147576004359060243590565b90601f8019910116810190811067ffffffffffffffff8211176117f557604052565b634e487b7160e01b5f52604160045260245ffd5b67ffffffffffffffff81116117f557601f01601f191660200190565b90600182811c92168015611853575b602083101461183f57565b634e487b7160e01b5f52602260045260245ffd5b91607f1691611834565b9060405191825f82549261187084611825565b9081845260019485811690815f146118db575060011461189b575b5050611899925003836117d3565b565b909391505f52602090815f20935f915b8183106118c357505061189993508201015f8061188b565b855488840185015294850194879450918301916118ab565b91505061189994506020925060ff191682840152151560051b8201015f8061188b565b91908251928382525f5b848110611928575050825f602080949584010152601f8019910116010190565b602081830181015184830182015201611908565b600435906001600160a01b038216820361014757565b9190820180921161062d57565b1561196657565b60405162461bcd60e51b81526020600482015260096024820152682737ba1037bbb732b960b91b6044820152606490fd5b5f19811461062d5760010190565b156119ac57565b60405162461bcd60e51b8152602060048201526016602482015275105d58dd1a5bdb88191bd95cc81b9bdd08195e1a5cdd60521b6044820152606490fd5b9190820391821161062d57565b156119fe57565b60405162461bcd60e51b8152602060048201526015602482015274105d58dd1a5bdb88185b1c9958591e48195b991959605a1b6044820152606490fd5b3d15611a65573d90611a4c82611809565b91611a5a60405193846117d3565b82523d5f602084013e565b606090565b15611a7157565b60405162461bcd60e51b815260206004820152600f60248201526e151c985b9cd9995c8819985a5b1959608a1b6044820152606490fd5b7f9b779b17422d0df92223018b32b4d1fa46e071723d6817e2486d003becc55f006002815414611ad85760029055565b604051633ee5aeb560e01b8152600490fd5b5f908082526001602052611b0a60ff600c60408520015460081c166119a5565b81526001602052600b60408220015490655af3107a400091828102928184041490151715611b425750611b3f90600754611952565b90565b634e487b7160e01b81526011600452602490fd5b805f526001602052611b7460ff600c60405f20015460081c166119a5565b805f526001602052611b8960405f2091611aea565b60048201546001600160a01b031615611bb857611bb38260086003611b3f95015491015490611952565b611952565b6002611b3f92015461195256fea26469706673582212201a98c02c16688eb4d2e12a2956d60a6c7f4038d7c4db6703d51104174dacfc6f64736f6c63430008140033","linkReferences":{}},"methodIdentifiers":{"EXTENSION_TIME()":"5681104a","MAX_EXTENSIONS()":"c07780f6","MAX_EXTENSION_PERCENT()":"f88c527b","accumulatedFees()":"587f5ed7","auctionCounter()":"a7e76644","auctions(uint256)":"571a26a0","baseBuyerFee()":"a0f8504c","buyerFee(uint256)":"de4a008a","createAuction(string,uint256,uint256,uint256)":"4e463734","endAuction(uint256)":"b9a2de3a","extendBySeller(uint256,uint256)":"1c46a5f8","getAuction(uint256)":"78bd7935","isVerifiedSeller(address)":"b091c81b","minimumBidTotal(uint256)":"81e66630","owner()":"8da5cb5b","pendingReturns(uint256,address)":"8ddac1ef","placeBid(uint256)":"9979ef45","registerAsSeller()":"128b8532","revokeSeller(address)":"96a913bf","sellerRegistrationFee()":"5c7aec35","sellers(address)":"6d47ab72","updateFees(uint256,uint256)":"6db79437","verifySeller(address)":"d1760e60","withdrawBid(uint256)":"0eaaf4c8","withdrawFees()":"476343ee"},"id":22}