{"abi":[{"type":"constructor","inputs":[],"stateMutability":"nonpayable"},{"type":"function","name":"EXTENSION_TIME","inputs":[],"outputs":[{"name":"","type":"uint256","internalType":"uint256"}],"stateMutability":"view"},{"type":"function","name":"MAX_EXTENSIONS","inputs":[],"outputs":[{"name":"","type":"uint256","internalType":"uint256"}],"stateMutability":"view"},{"type":"function","name":"MAX_EXTENSION_PERCENT","inputs":[],"outputs":[{"name":"","type":"uint256","internalType":"uint256"}],"stateMutability":"view"},{"type":"function","name":"MIN_DURATION","inputs":[],"outputs":[{"name":"","type":"uint256","internalType":"uint256"}],"stateMutability":"view"},{"type":"function","name":"TIMESTAMP_BUFFER","inputs":[],"outputs":[{"name":"","type":"uint256","internalType":"uint256"}],"stateMutability":"view"},{"type":"function","name":"accumulatedFees","inputs":[],"outputs":[{"name":"","type":"uint256","internalType":"uint256"}],"stateMutability":"view"},{"type":"function","name":"auctionCounter","inputs":[],"outputs":[{"name":"","type":"uint256","internalType":"uint256"}],"stateMutability":"view"},{"type":"function","name":"auctions","inputs":[{"name":"","type":"uint256","internalType":"uint256"}],"outputs":[{"name":"seller","type":"address","internalType":"address"},{"name":"extensionCount","type":"uint8","internalType":"uint8"},{"name":"sellerExtendedTime","type":"uint32","internalType":"uint32"},{"name":"ended","type":"bool","internalType":"bool"},{"name":"exists","type":"bool","internalType":"bool"},{"name":"startingPrice","type":"uint256","internalType":"uint256"},{"name":"highestBid","type":"uint256","internalType":"uint256"},{"name":"highestBidder","type":"address","internalType":"address"},{"name":"deadline","type":"uint40","internalType":"uint40"},{"name":"duration","type":"uint32","internalType":"uint32"},{"name":"minIncrement","type":"uint128","internalType":"uint128"},{"name":"metadataCID","type":"string","internalType":"string"},{"name":"numBidders","type":"uint256","internalType":"uint256"}],"stateMutability":"view"},{"type":"function","name":"baseBuyerFee","inputs":[],"outputs":[{"name":"","type":"uint256","internalType":"uint256"}],"stateMutability":"view"},{"type":"function","name":"buyerFee","inputs":[{"name":"auctionId","type":"uint256","internalType":"uint256"}],"outputs":[{"name":"","type":"uint256","internalType":"uint256"}],"stateMutability":"view"},{"type":"function","name":"createAuction","inputs":[{"name":"metadataCID","type":"string","internalType":"string"},{"name":"startingPrice","type":"uint256","internalType":"uint256"},{"name":"durationSeconds","type":"uint256","internalType":"uint256"},{"name":"minIncrement","type":"uint256","internalType":"uint256"}],"outputs":[{"name":"","type":"uint256","internalType":"uint256"}],"stateMutability":"nonpayable"},{"type":"function","name":"endAuction","inputs":[{"name":"_auctionId","type":"uint256","internalType":"uint256"}],"outputs":[],"stateMutability":"nonpayable"},{"type":"function","name":"extendBySeller","inputs":[{"name":"_auctionId","type":"uint256","internalType":"uint256"},{"name":"extraTime","type":"uint256","internalType":"uint256"}],"outputs":[],"stateMutability":"nonpayable"},{"type":"function","name":"getAuction","inputs":[{"name":"auctionId","type":"uint256","internalType":"uint256"}],"outputs":[{"name":"metadataCID","type":"string","internalType":"string"},{"name":"seller","type":"address","internalType":"address"},{"name":"highestBid","type":"uint256","internalType":"uint256"},{"name":"highestBidder","type":"address","internalType":"address"},{"name":"deadline","type":"uint256","internalType":"uint256"},{"name":"ended","type":"bool","internalType":"bool"},{"name":"numBidders","type":"uint256","internalType":"uint256"}],"stateMutability":"view"},{"type":"function","name":"isVerifiedSeller","inputs":[{"name":"sellerAddr","type":"address","internalType":"address"}],"outputs":[{"name":"","type":"bool","internalType":"bool"}],"stateMutability":"view"},{"type":"function","name":"minimumBidTotal","inputs":[{"name":"auctionId","type":"uint256","internalType":"uint256"}],"outputs":[{"name":"","type":"uint256","internalType":"uint256"}],"stateMutability":"view"},{"type":"function","name":"owner","inputs":[],"outputs":[{"name":"","type":"address","internalType":"address"}],"stateMutability":"view"},{"type":"function","name":"pendingReturns","inputs":[{"name":"","type":"uint256","internalType":"uint256"},{"name":"","type":"address","internalType":"address"}],"outputs":[{"name":"","type":"uint256","internalType":"uint256"}],"stateMutability":"view"},{"type":"function","name":"placeBid","inputs":[{"name":"_auctionId","type":"uint256","internalType":"uint256"}],"outputs":[],"stateMutability":"payable"},{"type":"function","name":"registerAsSeller","inputs":[],"outputs":[],"stateMutability":"payable"},{"type":"function","name":"revokeSeller","inputs":[{"name":"sellerAddr","type":"address","internalType":"address"}],"outputs":[],"stateMutability":"nonpayable"},{"type":"function","name":"sellerRegistrationFee","inputs":[],"outputs":[{"name":"","type":"uint256","internalType":"uint256"}],"stateMutability":"view"},{"type":"function","name":"sellers","inputs":[{"name":"","type":"address","internalType":"address"}],"outputs":[{"name":"isVerified","type":"bool","internalType":"bool"},{"name":"hasPaidFee","type":"bool","internalType":"bool"},{"name":"registeredAt","type":"uint256","internalType":"uint256"}],"stateMutability":"view"},{"type":"function","name":"timeRemaining","inputs":[{"name":"auctionId","type":"uint256","internalType":"uint256"}],"outputs":[{"name":"","type":"uint256","internalType":"uint256"}],"stateMutability":"view"},{"type":"function","name":"updateFees","inputs":[{"name":"newSellerFee","type":"uint256","internalType":"uint256"},{"name":"newBuyerFee","type":"uint256","internalType":"uint256"}],"outputs":[],"stateMutability":"nonpayable"},{"type":"function","name":"verifySeller","inputs":[{"name":"sellerAddr","type":"address","internalType":"address"}],"outputs":[],"stateMutability":"nonpayable"},{"type":"function","name":"withdrawBid","inputs":[{"name":"auctionId","type":"uint256","internalType":"uint256"}],"outputs":[],"stateMutability":"nonpayable"},{"type":"function","name":"withdrawFees","inputs":[],"outputs":[],"stateMutability":"nonpayable"},{"type":"event","name":"AuctionCreated","inputs":[{"name":"auctionId","type":"uint256","indexed":true,"internalType":"uint256"},{"name":"metadataCID","type":"string","indexed":false,"internalType":"string"},{"name":"startingPrice","type":"uint256","indexed":false,"internalType":"uint256"},{"name":"deadline","type":"uint256","indexed":false,"internalType":"uint256"}],"anonymous":false},{"type":"event","name":"AuctionEnded","inputs":[{"name":"auctionId","type":"uint256","indexed":true,"internalType":"uint256"},{"name":"winner","type":"address","indexed":true,"internalType":"address"},{"name":"amount","type":"uint256","indexed":false,"internalType":"uint256"}],"anonymous":false},{"type":"event","name":"AuctionExtended","inputs":[{"name":"auctionId","type":"uint256","indexed":true,"internalType":"uint256"},{"name":"newDeadline","type":"uint256","indexed":false,"internalType":"uint256"},{"name":"reason","type":"string","indexed":false,"internalType":"string"}],"anonymous":false},{"type":"event","name":"BidPlaced","inputs":[{"name":"auctionId","type":"uint256","indexed":true,"internalType":"uint256"},{"name":"bidder","type":"address","indexed":true,"internalType":"address"},{"name":"amount","type":"uint256","indexed":false,"internalType":"uint256"}],"anonymous":false},{"type":"event","name":"BidWithdrawn","inputs":[{"name":"auctionId","type":"uint256","indexed":true,"internalType":"uint256"},{"name":"bidder","type":"address","indexed":true,"internalType":"address"},{"name":"amount","type":"uint256","indexed":false,"internalType":"uint256"}],"anonymous":false},{"type":"event","name":"FeesUpdated","inputs":[{"name":"newSellerFee","type":"uint256","indexed":false,"internalType":"uint256"},{"name":"newBuyerFee","type":"uint256","indexed":false,"internalType":"uint256"}],"anonymous":false},{"type":"event","name":"FeesWithdrawn","inputs":[{"name":"admin","type":"address","indexed":true,"internalType":"address"},{"name":"amount","type":"uint256","indexed":false,"internalType":"uint256"}],"anonymous":false},{"type":"event","name":"SellerRegistered","inputs":[{"name":"seller","type":"address","indexed":true,"internalType":"address"},{"name":"feePaid","type":"uint256","indexed":false,"internalType":"uint256"}],"anonymous":false},{"type":"event","name":"SellerRevoked","inputs":[{"name":"seller","type":"address","indexed":true,"internalType":"address"}],"anonymous":false},{"type":"event","name":"SellerVerified","inputs":[{"name":"seller","type":"address","indexed":true,"internalType":"address"}],"anonymous":false},{"type":"error","name":"AlreadyHighestBidder","inputs":[]},{"type":"error","name":"AlreadyRegistered","inputs":[]},{"type":"error","name":"AuctionAlreadyFinalized","inputs":[]},{"type":"error","name":"AuctionExpired","inputs":[]},{"type":"error","name":"AuctionNotExist","inputs":[]},{"type":"error","name":"AuctionNotYetEnded","inputs":[]},{"type":"error","name":"BidBelowStartingPrice","inputs":[]},{"type":"error","name":"BidTooLow","inputs":[]},{"type":"error","name":"CurrentWinnerCannotWithdraw","inputs":[]},{"type":"error","name":"DurationTooLong","inputs":[]},{"type":"error","name":"DurationTooShort","inputs":[]},{"type":"error","name":"ETHTransferFailed","inputs":[]},{"type":"error","name":"ExceedsMaxSellerExtension","inputs":[]},{"type":"error","name":"ExtensionMustBePositive","inputs":[]},{"type":"error","name":"IncrementMustBePositive","inputs":[]},{"type":"error","name":"InsufficientRegistrationFee","inputs":[]},{"type":"error","name":"MustSendMoreThanFee","inputs":[]},{"type":"error","name":"NoFeesToWithdraw","inputs":[]},{"type":"error","name":"NotCurrentlyVerified","inputs":[]},{"type":"error","name":"NotOwner","inputs":[]},{"type":"error","name":"NothingToWithdraw","inputs":[]},{"type":"error","name":"OnlySellerCanExtend","inputs":[]},{"type":"error","name":"ReentrancyGuardReentrantCall","inputs":[]},{"type":"error","name":"SellerCannotBid","inputs":[]},{"type":"error","name":"SellerNotPaidFee","inputs":[]},{"type":"error","name":"SellerNotVerified","inputs":[]},{"type":"error","name":"StartingPriceMustBePositive","inputs":[]}],"bytecode":{"object":"0x608080604052346100615760017f9b779b17422d0df92223018b32b4d1fa46e071723d6817e2486d003becc55f0055662386f26fc1000060065566038d7ea4c680006007555f80546001600160a01b031916331790556117ee90816100668239f35b5f80fdfe60806040526004361015610011575f80fd5b5f3560e01c80630eaaf4c81461136b578063128b8532146112c05780631c46a5f814611116578063476343ee1461104b5780634e46373414610b6c5780635681104a14610b51578063571a26a014610a60578063587f5ed714610a435780635c7aec3514610a265780636d47ab72146109d15780636db794371461097857806378bd7935146108c75780637ef1bfaf146108ac57806381e66630146108755780638da5cb5b1461084e5780638ddac1ef1461080557806396a913bf146107765780639979ef4514610452578063a0f8504c14610435578063a7e7664414610418578063b091c81b146103db578063b6a6d177146103bf578063b9a2de3a1461029d578063c07780f614610282578063d1760e60146101db578063de4a008a146101bd578063ea3d90201461016c5763f88c527b1461014d575f80fd5b34610168575f36600319011261016857602060405160148152f35b5f80fd5b3461016857602036600319011261016857600435805f52600160205260ff60405f205460d01c16156101ab576101a3602091611787565b604051908152f35b604051631cacacff60e11b8152600490fd5b346101685760203660031901126101685760206101a36004356116c4565b34610168576020366003190112610168576101f46115e1565b5f546001600160a01b039190821633036102705716805f52600560205260ff60405f205460081c161561025e57805f52600560205260405f20600160ff198254161790557f3b70d942f0d1b7ca8b2d9e9489ae6658663909e702d5fac66b2796dab740c5a45f80a2005b604051636a9b7da760e01b8152600490fd5b6040516330cd747160e01b8152600490fd5b34610168575f36600319011261016857602060405160058152f35b346101685760208060031936011261016857600435805f526001825260ff60405f205460d01c16156101ab57805f526001825260405f2080549260ff8460c81c166103ad57600382015464ffffffffff8160a01c16600f81018091116103995742106103875760ff60c81b198516600160c81b1783556001600160a01b03908116947fd2aa34a4fdbbc6dff6a3e56f46e0f3ae2a31d7785ff3487aa5c95c642acea50193600292909187610359575b50500154604051908152a3005b8383015491875f526003865260405f2091165f52845261037e60405f209182546115f7565b9055868061034c565b60405163044cee2960e41b8152600490fd5b634e487b7160e01b5f52601160045260245ffd5b60405163059fb38360e51b8152600490fd5b34610168575f3660031901126101685760206040516102588152f35b34610168576020366003190112610168576001600160a01b036103fc6115e1565b165f526005602052602060ff60405f2054166040519015158152f35b34610168575f366003190112610168576020600254604051908152f35b34610168575f366003190112610168576020600754604051908152f35b60208060031936011261016857600435805f526001825260ff918260405f205460d01c16156101ab57815f526001815260405f2090815493808560c81c166103ad57600383019283549164ffffffffff90818460a01c169384421015610764576001600160a01b0398891633146107525788163314610740576104d4876116c4565b978834111561072e576104f36104ea8a3461162e565b996008546115f7565b600855865416806106d15750600183015488106106bf5787935b875f526004865260405f20335f5286528160405f2054161561068b575b60b4610536428361162e565b108061067b575b61058e575b5050506002907f0e54eff26401bf69b81b26f60bd85ef47f5d85275c1d268d84f68d6897431c4794336bffffffffffffffffffffffff60a01b82541617905501556040519384523393a3005b60b49193929450019483861161039957805464ffffffffff60a01b191660a087901b64ffffffffff60a01b1617815582825460a01c1692831461039957867f83fd7341a47a710c724aa27aa7f09f56c48634837a08ea5e8b542a310b7de71760807f0e54eff26401bf69b81b26f60bd85ef47f5d85275c1d268d84f68d6897431c47988b97610638600160029901889081549060ff60a01b9060a01b169060ff60a01b1916179055565b60405191168152604089820152601b60408201527f416e74692d736e6970696e67206175746f2d657874656e73696f6e00000000006060820152a2948192610542565b50600582855460a01c161061053d565b875f526004865260405f20335f52865260405f20600160ff19825416179055600684016106b88154611604565b905561052a565b60405163edae890d60e01b8152600490fd5b9360028401546106ee6001600160801b03600487015416826115f7565b8a1061071c578995895f526003885260405f20905f52875261071560405f209182546115f7565b905561050d565b604051635069375b60e11b8152600490fd5b604051632c669a5960e21b8152600490fd5b60405163557322db60e11b8152600490fd5b60405163ef02588960e01b8152600490fd5b604051630129799f60e21b8152600490fd5b346101685760203660031901126101685761078f6115e1565b5f546001600160a01b039190821633036102705716805f52600560205260ff60405f205416156107f357805f52600560205260405f2060ff1981541690557fea80e8e27db0832060df75abe3292d36558c46bc38fddd2aa28f5edd3e168c395f80a2005b60405163a3d7249560e01b8152600490fd5b34610168576040366003190112610168576024356001600160a01b03811690819003610168576004355f52600360205260405f20905f52602052602060405f2054604051908152f35b34610168575f366003190112610168575f546040516001600160a01b039091168152602090f35b3461016857602036600319011261016857600435805f52600160205260ff60405f205460d01c16156101ab576101a360209161172d565b34610168575f366003190112610168576020604051600f8152f35b3461016857602036600319011261016857600435805f52600160205260ff60405f205460d01c16156101ab575f52600160205261093e60405f2080549060028101549060ff60038201549364ffffffffff610929600560068601549501611502565b9560405197889760e0895260e08901906115a3565b9560018060a01b039081851660208a015260408901528116606088015260a01c16608086015260c81c16151560a084015260c08301520390f35b346101685761098636611492565b5f546001600160a01b0316330361027057816040917f5c6323bf1c2d7aaea2c091a4751c1c87af7f2864650c336507a77d0557af37a1936006558060075582519182526020820152a1005b34610168576020366003190112610168576001600160a01b036109f26115e1565b165f526005602052606060405f206001815491015460ff604051928181161515845260081c16151560208301526040820152f35b34610168575f366003190112610168576020600654604051908152f35b34610168575f366003190112610168576020600854604051908152f35b34610168576020366003190112610168576004355f52600160205260405f20805490600181015491610b466002830154926003810154926001600160801b03600483015416906006610ab460058501611502565b9301549460405197889760018060a01b03918285168a5260ff8560a01c1660208b015260ff63ffffffff95868160a81c1660408d0152818160c81c16151560608d015260d01c16151560808b015260a08a015260c0890152811660e088015264ffffffffff8160a01c1661010088015260c81c166101208601526101408501526101a0806101608601528401906115a3565b906101808301520390f35b34610168575f36600319011261016857602060405160b48152f35b346101685760803660031901126101685767ffffffffffffffff60043511610168573660236004350112156101685767ffffffffffffffff6004356004013511610168573660246004356004013560043501011161016857335f52600560205260ff60405f20541615611039576024351561102757606435156110155761025860443510611003576201518060443511610ff157600254610c0c81611604565b60025564ffffffffff610c21604435426115f7565b16906040516101a0810181811067ffffffffffffffff821117610fdd576040523381525f60208201525f60408201525f60608201526001608082015260243560a082015260243560c08201525f60e08201528261010082015263ffffffff604435166101208201526001600160801b0360643516610140820152610caa60043560040135611612565b610cb760405191826114e0565b60048035908101358083529060240160208301375f6004803581013583016020908101839052610160850193845261018085018390528583526001808252604093849020865181549388015195880151606089015160808a015160a89290921b63ffffffff60a81b1660a098891b60ff60a01b166001600160a01b039485166001600160d81b031990981697909717969096179590951794151560c890811b60ff60c81b169590951790151560d01b60ff60d01b16178255858801519282019290925560c0870151600282015560e08701516003820180546101008a01516101208b015163ffffffff60c81b971b969096169590971b64ffffffffff60a01b16919093166001600160e81b0319909616959095179490941791909117905561014084015190820180546001600160801b039092166fffffffffffffffffffffffffffffffff1990921691909117905590518051929067ffffffffffffffff8411610fdd57610e2860058401546114a8565b601f8111610f95575b50916020959185938790601f8711600114610eff5791867f5bf34ed94988e5dcdc7d1faaa54eb1d3b55f45d5f11457e235afb21a8ebbe73c9697610180936006955f92610ef4575b50508160011b915f199060031b1c19161760058501555b015191015560405190606082526004356004013560608301526004356004013560246004350160808401375f60806004356004013584010152602435868301526040820152608081601f19601f6004356004013501168101030190a2604051908152f35b015190508b80610e79565b9590600584015f52885f20965f5b601f1984168110610f7b5750827f5bf34ed94988e5dcdc7d1faaa54eb1d3b55f45d5f11457e235afb21a8ebbe73c97986006959360019361018096601f19811610610f63575b505050811b016005850155610e90565b01515f1960f88460031b161c191690558b8080610f53565b828201518955600190980197899750918a01918a01610f0d565b600584015f5260205f20601f860160051c81019160208710610fd3575b601f0160051c01905b818110610fc85750610e31565b5f8155600101610fbb565b9091508190610fb2565b634e487b7160e01b5f52604160045260245ffd5b604051634a94fa8360e11b8152600490fd5b6040516325c3636760e01b8152600490fd5b604051630bffdc7560e31b8152600490fd5b60405163394ea90960e01b8152600490fd5b604051631eb5a1af60e11b8152600490fd5b34610168575f366003190112610168575f546001600160a01b03908116330361027057611076611682565b600854908115611104575f6008555f80808085858254165af1611097611653565b50156110f25760207fc0819c13be868895eb93e40eaceb96de976442fa1d404e5c55f14bb65a8c489a915f541692604051908152a260017f9b779b17422d0df92223018b32b4d1fa46e071723d6817e2486d003becc55f0055005b60405163b12d13eb60e01b8152600490fd5b604051630d00db4d60e31b8152600490fd5b346101685761112436611492565b815f52600160205260ff60405f205460d01c16156101ab57815f52600160205260405f209081549060ff8260c81c166103ad576001600160a01b03821633036112ae5760038301805464ffffffffff92838260a01c16908142101561076457801561129c5763ffffffff809660a81c169286821696806111a4898761163b565b9260c81c16601481029080820460141490151715610399576064900491161161128a578416019483861161039957825464ffffffffff60a01b191660a09690961b64ffffffffff60a01b169590951782557f83fd7341a47a710c724aa27aa7f09f56c48634837a08ea5e8b542a310b7de7179460809461124892611228919061163b565b815463ffffffff60a81b191660a89190911b63ffffffff60a81b16179055565b5460a01c1660405190815260406020820152601760408201527f53656c6c6572206d616e75616c20657874656e73696f6e0000000000000000006060820152a2005b604051636f1e027960e01b8152600490fd5b604051634be638a160e01b8152600490fd5b604051633ff032a360e11b8152600490fd5b5f36600319011261016857335f52600560205260ff60405f205460081c1661135957600654341061134757335f52600560205260405f2061010061ff0019825416178155600142910155611316346008546115f7565b6008556040513481527fa1a1a78ff3033d5ee8393372052aeb2a16bbb347a29f3780370e9506c109e37260203392a2005b60405163ef1452c160e01b8152600490fd5b604051630ea075bf60e21b8152600490fd5b346101685760208060031936011261016857600435611388611682565b805f526001825260ff60405f205460d01c16156101ab57805f526001825260405f2060018060a01b0360038201541633149081611482575b5061147057805f526003825260405f20335f52825260405f205491821561145e57815f526003815260405f20335f5281525f60408120555f80808086335af1611407611653565b50156110f2577f8f8619524e8d462cead34604bd2247ede24175801481e4d0b8059ac8aa41c301906040519384523393a360017f9b779b17422d0df92223018b32b4d1fa46e071723d6817e2486d003becc55f0055005b604051630686827b60e51b8152600490fd5b604051637f64cdcd60e01b8152600490fd5b60ff91505460c81c1615836113c0565b6040906003190112610168576004359060243590565b90600182811c921680156114d6575b60208310146114c257565b634e487b7160e01b5f52602260045260245ffd5b91607f16916114b7565b90601f8019910116810190811067ffffffffffffffff821117610fdd57604052565b9060405191825f825492611515846114a8565b9081845260019485811690815f146115805750600114611540575b505061153e925003836114e0565b565b909391505f52602090815f20935f915b81831061156857505061153e93508201015f80611530565b85548884018501529485019487945091830191611550565b91505061153e94506020925060ff191682840152151560051b8201015f80611530565b91908251928382525f5b8481106115cd575050825f602080949584010152601f8019910116010190565b6020818301810151848301820152016115ad565b600435906001600160a01b038216820361016857565b9190820180921161039957565b5f1981146103995760010190565b67ffffffffffffffff8111610fdd57601f01601f191660200190565b9190820391821161039957565b91909163ffffffff8080941691160191821161039957565b3d1561167d573d9061166482611612565b9161167260405193846114e0565b82523d5f602084013e565b606090565b7f9b779b17422d0df92223018b32b4d1fa46e071723d6817e2486d003becc55f0060028154146116b25760029055565b604051633ee5aeb560e01b8152600490fd5b905f91808352600160205260ff604084205460d01c16156101ab576007549083526001602052600660408420015490655af3107a400091828102928184041490151715611719576117169293506115f7565b90565b634e487b7160e01b84526011600452602484fd5b805f52600160205261174260405f20916116c4565b60038201546001600160a01b03161561177a57611775826001600160801b036004600261171696015492015416906115f7565b6115f7565b60016117169201546115f7565b5f52600160205264ffffffffff600360405f20015460a01c16804210156117b35761171690429061162e565b505f9056fea2646970667358221220271f1fdda4fb254c10ce53a5fc6d62be81163f66d7fee0d1d8deba824210a55364736f6c63430008140033","linkReferences":{}},"methodIdentifiers":{"EXTENSION_TIME()":"5681104a","MAX_EXTENSIONS()":"c07780f6","MAX_EXTENSION_PERCENT()":"f88c527b","MIN_DURATION()":"b6a6d177","TIMESTAMP_BUFFER()":"7ef1bfaf","accumulatedFees()":"587f5ed7","auctionCounter()":"a7e76644","auctions(uint256)":"571a26a0","baseBuyerFee()":"a0f8504c","buyerFee(uint256)":"de4a008a","createAuction(string,uint256,uint256,uint256)":"4e463734","endAuction(uint256)":"b9a2de3a","extendBySeller(uint256,uint256)":"1c46a5f8","getAuction(uint256)":"78bd7935","isVerifiedSeller(address)":"b091c81b","minimumBidTotal(uint256)":"81e66630","owner()":"8da5cb5b","pendingReturns(uint256,address)":"8ddac1ef","placeBid(uint256)":"9979ef45","registerAsSeller()":"128b8532","revokeSeller(address)":"96a913bf","sellerRegistrationFee()":"5c7aec35","sellers(address)":"6d47ab72","timeRemaining(uint256)":"ea3d9020","updateFees(uint256,uint256)":"6db79437","verifySeller(address)":"d1760e60","withdrawBid(uint256)":"0eaaf4c8","withdrawFees()":"476343ee"},"id":22}